{
  "_format": "hh-sol-artifact-1",
  "contractName": "NFTKeeper",
  "sourceName": "contracts/token/NFTKeeper.sol",
  "abi": [
    {
      "inputs": [],
      "stateMutability": "nonpayable",
      "type": "constructor"
    },
    {
      "inputs": [],
      "name": "AccessControlBadConfirmation",
      "type": "error"
    },
    {
      "inputs": [
        {
          "internalType": "address",
          "name": "account",
          "type": "address"
        },
        {
          "internalType": "bytes32",
          "name": "neededRole",
          "type": "bytes32"
        }
      ],
      "name": "AccessControlUnauthorizedAccount",
      "type": "error"
    },
    {
      "inputs": [
        {
          "internalType": "address",
          "name": "spender",
          "type": "address"
        },
        {
          "internalType": "uint256",
          "name": "allowance",
          "type": "uint256"
        },
        {
          "internalType": "uint256",
          "name": "needed",
          "type": "uint256"
        }
      ],
      "name": "ERC20InsufficientAllowance",
      "type": "error"
    },
    {
      "inputs": [
        {
          "internalType": "address",
          "name": "sender",
          "type": "address"
        },
        {
          "internalType": "uint256",
          "name": "balance",
          "type": "uint256"
        },
        {
          "internalType": "uint256",
          "name": "needed",
          "type": "uint256"
        }
      ],
      "name": "ERC20InsufficientBalance",
      "type": "error"
    },
    {
      "inputs": [
        {
          "internalType": "address",
          "name": "approver",
          "type": "address"
        }
      ],
      "name": "ERC20InvalidApprover",
      "type": "error"
    },
    {
      "inputs": [
        {
          "internalType": "address",
          "name": "receiver",
          "type": "address"
        }
      ],
      "name": "ERC20InvalidReceiver",
      "type": "error"
    },
    {
      "inputs": [
        {
          "internalType": "address",
          "name": "sender",
          "type": "address"
        }
      ],
      "name": "ERC20InvalidSender",
      "type": "error"
    },
    {
      "inputs": [
        {
          "internalType": "address",
          "name": "spender",
          "type": "address"
        }
      ],
      "name": "ERC20InvalidSpender",
      "type": "error"
    },
    {
      "anonymous": false,
      "inputs": [
        {
          "indexed": true,
          "internalType": "address",
          "name": "owner",
          "type": "address"
        },
        {
          "indexed": true,
          "internalType": "address",
          "name": "spender",
          "type": "address"
        },
        {
          "indexed": false,
          "internalType": "uint256",
          "name": "value",
          "type": "uint256"
        }
      ],
      "name": "Approval",
      "type": "event"
    },
    {
      "anonymous": false,
      "inputs": [
        {
          "indexed": true,
          "internalType": "bytes32",
          "name": "role",
          "type": "bytes32"
        },
        {
          "indexed": true,
          "internalType": "bytes32",
          "name": "previousAdminRole",
          "type": "bytes32"
        },
        {
          "indexed": true,
          "internalType": "bytes32",
          "name": "newAdminRole",
          "type": "bytes32"
        }
      ],
      "name": "RoleAdminChanged",
      "type": "event"
    },
    {
      "anonymous": false,
      "inputs": [
        {
          "indexed": true,
          "internalType": "bytes32",
          "name": "role",
          "type": "bytes32"
        },
        {
          "indexed": true,
          "internalType": "address",
          "name": "account",
          "type": "address"
        },
        {
          "indexed": true,
          "internalType": "address",
          "name": "sender",
          "type": "address"
        }
      ],
      "name": "RoleGranted",
      "type": "event"
    },
    {
      "anonymous": false,
      "inputs": [
        {
          "indexed": true,
          "internalType": "bytes32",
          "name": "role",
          "type": "bytes32"
        },
        {
          "indexed": true,
          "internalType": "address",
          "name": "account",
          "type": "address"
        },
        {
          "indexed": true,
          "internalType": "address",
          "name": "sender",
          "type": "address"
        }
      ],
      "name": "RoleRevoked",
      "type": "event"
    },
    {
      "anonymous": false,
      "inputs": [
        {
          "indexed": true,
          "internalType": "address",
          "name": "from",
          "type": "address"
        },
        {
          "indexed": true,
          "internalType": "address",
          "name": "to",
          "type": "address"
        },
        {
          "indexed": false,
          "internalType": "uint256",
          "name": "value",
          "type": "uint256"
        }
      ],
      "name": "Transfer",
      "type": "event"
    },
    {
      "inputs": [],
      "name": "DEFAULT_ADMIN_ROLE",
      "outputs": [
        {
          "internalType": "bytes32",
          "name": "",
          "type": "bytes32"
        }
      ],
      "stateMutability": "view",
      "type": "function"
    },
    {
      "inputs": [
        {
          "internalType": "address",
          "name": "owner",
          "type": "address"
        },
        {
          "internalType": "address",
          "name": "spender",
          "type": "address"
        }
      ],
      "name": "allowance",
      "outputs": [
        {
          "internalType": "uint256",
          "name": "",
          "type": "uint256"
        }
      ],
      "stateMutability": "view",
      "type": "function"
    },
    {
      "inputs": [
        {
          "internalType": "address",
          "name": "spender",
          "type": "address"
        },
        {
          "internalType": "uint256",
          "name": "value",
          "type": "uint256"
        }
      ],
      "name": "approve",
      "outputs": [
        {
          "internalType": "bool",
          "name": "",
          "type": "bool"
        }
      ],
      "stateMutability": "nonpayable",
      "type": "function"
    },
    {
      "inputs": [
        {
          "internalType": "address",
          "name": "account",
          "type": "address"
        }
      ],
      "name": "balanceOf",
      "outputs": [
        {
          "internalType": "uint256",
          "name": "",
          "type": "uint256"
        }
      ],
      "stateMutability": "view",
      "type": "function"
    },
    {
      "inputs": [
        {
          "internalType": "uint256",
          "name": "amount",
          "type": "uint256"
        }
      ],
      "name": "burn",
      "outputs": [],
      "stateMutability": "nonpayable",
      "type": "function"
    },
    {
      "inputs": [
        {
          "internalType": "address",
          "name": "from",
          "type": "address"
        },
        {
          "internalType": "uint256",
          "name": "amount",
          "type": "uint256"
        }
      ],
      "name": "burnFrom",
      "outputs": [],
      "stateMutability": "nonpayable",
      "type": "function"
    },
    {
      "inputs": [],
      "name": "decimals",
      "outputs": [
        {
          "internalType": "uint8",
          "name": "",
          "type": "uint8"
        }
      ],
      "stateMutability": "view",
      "type": "function"
    },
    {
      "inputs": [
        {
          "internalType": "bytes32",
          "name": "role",
          "type": "bytes32"
        }
      ],
      "name": "getRoleAdmin",
      "outputs": [
        {
          "internalType": "bytes32",
          "name": "",
          "type": "bytes32"
        }
      ],
      "stateMutability": "view",
      "type": "function"
    },
    {
      "inputs": [
        {
          "internalType": "bytes32",
          "name": "role",
          "type": "bytes32"
        },
        {
          "internalType": "address",
          "name": "account",
          "type": "address"
        }
      ],
      "name": "grantRole",
      "outputs": [],
      "stateMutability": "nonpayable",
      "type": "function"
    },
    {
      "inputs": [
        {
          "internalType": "bytes32",
          "name": "role",
          "type": "bytes32"
        },
        {
          "internalType": "address",
          "name": "account",
          "type": "address"
        }
      ],
      "name": "hasRole",
      "outputs": [
        {
          "internalType": "bool",
          "name": "",
          "type": "bool"
        }
      ],
      "stateMutability": "view",
      "type": "function"
    },
    {
      "inputs": [
        {
          "internalType": "address",
          "name": "account",
          "type": "address"
        },
        {
          "internalType": "uint256",
          "name": "amount",
          "type": "uint256"
        }
      ],
      "name": "mint",
      "outputs": [],
      "stateMutability": "nonpayable",
      "type": "function"
    },
    {
      "inputs": [],
      "name": "name",
      "outputs": [
        {
          "internalType": "string",
          "name": "",
          "type": "string"
        }
      ],
      "stateMutability": "view",
      "type": "function"
    },
    {
      "inputs": [
        {
          "internalType": "bytes32",
          "name": "role",
          "type": "bytes32"
        },
        {
          "internalType": "address",
          "name": "callerConfirmation",
          "type": "address"
        }
      ],
      "name": "renounceRole",
      "outputs": [],
      "stateMutability": "nonpayable",
      "type": "function"
    },
    {
      "inputs": [
        {
          "internalType": "bytes32",
          "name": "role",
          "type": "bytes32"
        },
        {
          "internalType": "address",
          "name": "account",
          "type": "address"
        }
      ],
      "name": "revokeRole",
      "outputs": [],
      "stateMutability": "nonpayable",
      "type": "function"
    },
    {
      "inputs": [
        {
          "internalType": "bytes4",
          "name": "interfaceId",
          "type": "bytes4"
        }
      ],
      "name": "supportsInterface",
      "outputs": [
        {
          "internalType": "bool",
          "name": "",
          "type": "bool"
        }
      ],
      "stateMutability": "view",
      "type": "function"
    },
    {
      "inputs": [],
      "name": "symbol",
      "outputs": [
        {
          "internalType": "string",
          "name": "",
          "type": "string"
        }
      ],
      "stateMutability": "view",
      "type": "function"
    },
    {
      "inputs": [],
      "name": "totalSupply",
      "outputs": [
        {
          "internalType": "uint256",
          "name": "",
          "type": "uint256"
        }
      ],
      "stateMutability": "view",
      "type": "function"
    },
    {
      "inputs": [
        {
          "internalType": "address",
          "name": "to",
          "type": "address"
        },
        {
          "internalType": "uint256",
          "name": "value",
          "type": "uint256"
        }
      ],
      "name": "transfer",
      "outputs": [
        {
          "internalType": "bool",
          "name": "",
          "type": "bool"
        }
      ],
      "stateMutability": "nonpayable",
      "type": "function"
    },
    {
      "inputs": [
        {
          "internalType": "address",
          "name": "from",
          "type": "address"
        },
        {
          "internalType": "address",
          "name": "to",
          "type": "address"
        },
        {
          "internalType": "uint256",
          "name": "value",
          "type": "uint256"
        }
      ],
      "name": "transferFrom",
      "outputs": [
        {
          "internalType": "bool",
          "name": "",
          "type": "bool"
        }
      ],
      "stateMutability": "nonpayable",
      "type": "function"
    }
  ],
  "bytecode": "0x60806040523480156200001157600080fd5b506040518060400160405280600a81526020016927232a1025b2b2b832b960b11b815250604051806040016040528060048152602001634e46544b60e01b815250816003908162000063919062000122565b50600462000072828262000122565b505050620001ee565b634e487b7160e01b600052604160045260246000fd5b600181811c90821680620000a657607f821691505b602082108103620000c757634e487b7160e01b600052602260045260246000fd5b50919050565b601f8211156200011d576000816000526020600020601f850160051c81016020861015620000f85750805b601f850160051c820191505b81811015620001195782815560010162000104565b5050505b505050565b81516001600160401b038111156200013e576200013e6200007b565b62000156816200014f845462000091565b84620000cd565b602080601f8311600181146200018e5760008415620001755750858301515b600019600386901b1c1916600185901b17855562000119565b600085815260208120601f198616915b82811015620001bf578886015182559484019460019091019084016200019e565b5085821015620001de5787850151600019600388901b60f8161c191681555b5050505050600190811b01905550565b610d6280620001fe6000396000f3fe608060405234801561001057600080fd5b50600436106101515760003560e01c806340c10f19116100cd57806395d89b4111610081578063a9059cbb11610066578063a9059cbb146102d0578063d547741f146102e3578063dd62ed3e146102f657600080fd5b806395d89b41146102c0578063a217fddf146102c857600080fd5b806370a08231116100b257806370a082311461024b57806379cc67901461027457806391d148541461028757600080fd5b806340c10f191461022557806342966c681461023857600080fd5b806323b872dd116101245780632f2ff15d116101095780632f2ff15d146101ee578063313ce5671461020357806336568abe1461021257600080fd5b806323b872dd146101b8578063248a9ca3146101cb57600080fd5b806301ffc9a71461015657806306fdde031461017e578063095ea7b31461019357806318160ddd146101a6575b600080fd5b610169610164366004610b12565b61032f565b60405190151581526020015b60405180910390f35b6101866103c8565b6040516101759190610b5b565b6101696101a1366004610bc6565b61045a565b6002545b604051908152602001610175565b6101696101c6366004610bf0565b610472565b6101aa6101d9366004610c2c565b60009081526005602052604090206001015490565b6102016101fc366004610c45565b610496565b005b60405160128152602001610175565b610201610220366004610c45565b6104c1565b610201610233366004610bc6565b610512565b610201610246366004610c2c565b610520565b6101aa610259366004610c71565b6001600160a01b031660009081526020819052604090205490565b610201610282366004610bc6565b61052d565b610169610295366004610c45565b60009182526005602090815260408084206001600160a01b0393909316845291905290205460ff1690565b61018661056b565b6101aa600081565b6101696102de366004610bc6565b61057a565b6102016102f1366004610c45565b610588565b6101aa610304366004610c8c565b6001600160a01b03918216600090815260016020908152604080832093909416825291909152205490565b60007fffffffff0000000000000000000000000000000000000000000000000000000082167f7965db0b0000000000000000000000000000000000000000000000000000000014806103c257507f01ffc9a7000000000000000000000000000000000000000000000000000000007fffffffff000000000000000000000000000000000000000000000000000000008316145b92915050565b6060600380546103d790610cb6565b80601f016020809104026020016040519081016040528092919081815260200182805461040390610cb6565b80156104505780601f1061042557610100808354040283529160200191610450565b820191906000526020600020905b81548152906001019060200180831161043357829003601f168201915b5050505050905090565b6000336104688185856105ad565b5060019392505050565b6000336104808582856105ba565b61048b858585610650565b506001949350505050565b6000828152600560205260409020600101546104b1816106af565b6104bb83836106b9565b50505050565b6001600160a01b0381163314610503576040517f6697b23200000000000000000000000000000000000000000000000000000000815260040160405180910390fd5b61050d8282610767565b505050565b61051c82826107ee565b5050565b61052a3382610824565b50565b61055860017f341ee0dbe140d73d71ecd251b5476331083ba7e99930bcf9a9b6af186dc683cf610d06565b610561816106af565b61050d8383610824565b6060600480546103d790610cb6565b600033610468818585610650565b6000828152600560205260409020600101546105a3816106af565b6104bb8383610767565b61050d838383600161085a565b6001600160a01b0383811660009081526001602090815260408083209386168352929052205460001981146104bb5781811015610641576040517ffb8f41b20000000000000000000000000000000000000000000000000000000081526001600160a01b038416600482015260248101829052604481018390526064015b60405180910390fd5b6104bb8484848403600061085a565b6001600160a01b03831661067a57604051634b637e8f60e11b815260006004820152602401610638565b6001600160a01b0382166106a45760405163ec442f0560e01b815260006004820152602401610638565b61050d838383610961565b61052a8133610aa4565b60008281526005602090815260408083206001600160a01b038516845290915281205460ff1661075f5760008381526005602090815260408083206001600160a01b03861684529091529020805460ff191660011790556107173390565b6001600160a01b0316826001600160a01b0316847f2f8788117e7eff1d82e926ec794901d17c78024a50270940304540a733656f0d60405160405180910390a45060016103c2565b5060006103c2565b60008281526005602090815260408083206001600160a01b038516845290915281205460ff161561075f5760008381526005602090815260408083206001600160a01b0386168085529252808320805460ff1916905551339286917ff6391f5c32d9c69d2a47ea670b442974b53935d1edc7fd64eb21e047a839171b9190a45060016103c2565b6001600160a01b0382166108185760405163ec442f0560e01b815260006004820152602401610638565b61051c60008383610961565b6001600160a01b03821661084e57604051634b637e8f60e11b815260006004820152602401610638565b61051c82600083610961565b6001600160a01b03841661089d576040517fe602df0500000000000000000000000000000000000000000000000000000000815260006004820152602401610638565b6001600160a01b0383166108e0576040517f94280d6200000000000000000000000000000000000000000000000000000000815260006004820152602401610638565b6001600160a01b03808516600090815260016020908152604080832093871683529290522082905580156104bb57826001600160a01b0316846001600160a01b03167f8c5be1e5ebec7d5bd14f71427d1e84f3dd0314c0f7b2291e5b200ac8c7c3b9258460405161095391815260200190565b60405180910390a350505050565b6001600160a01b03831661098c5780600260008282546109819190610d19565b90915550610a179050565b6001600160a01b038316600090815260208190526040902054818110156109f8576040517fe450d38c0000000000000000000000000000000000000000000000000000000081526001600160a01b03851660048201526024810182905260448101839052606401610638565b6001600160a01b03841660009081526020819052604090209082900390555b6001600160a01b038216610a3357600280548290039055610a52565b6001600160a01b03821660009081526020819052604090208054820190555b816001600160a01b0316836001600160a01b03167fddf252ad1be2c89b69c2b068fc378daa952ba7f163c4a11628f55a4df523b3ef83604051610a9791815260200190565b60405180910390a3505050565b60008281526005602090815260408083206001600160a01b038516845290915290205460ff1661051c576040517fe2517d3f0000000000000000000000000000000000000000000000000000000081526001600160a01b038216600482015260248101839052604401610638565b600060208284031215610b2457600080fd5b81357fffffffff0000000000000000000000000000000000000000000000000000000081168114610b5457600080fd5b9392505050565b60006020808352835180602085015260005b81811015610b8957858101830151858201604001528201610b6d565b506000604082860101526040601f19601f8301168501019250505092915050565b80356001600160a01b0381168114610bc157600080fd5b919050565b60008060408385031215610bd957600080fd5b610be283610baa565b946020939093013593505050565b600080600060608486031215610c0557600080fd5b610c0e84610baa565b9250610c1c60208501610baa565b9150604084013590509250925092565b600060208284031215610c3e57600080fd5b5035919050565b60008060408385031215610c5857600080fd5b82359150610c6860208401610baa565b90509250929050565b600060208284031215610c8357600080fd5b610b5482610baa565b60008060408385031215610c9f57600080fd5b610ca883610baa565b9150610c6860208401610baa565b600181811c90821680610cca57607f821691505b602082108103610cea57634e487b7160e01b600052602260045260246000fd5b50919050565b634e487b7160e01b600052601160045260246000fd5b818103818111156103c2576103c2610cf0565b808201808211156103c2576103c2610cf056fea2646970667358221220559f07795908713bd36f892103a011c074396d75a4778a807be9196ceff34aa264736f6c63430008170033",
  "linkReferences": {},
  "deployedLinkReferences": {}
}