{
  "_format": "hh-sol-artifact-1",
  "contractName": "Zapper",
  "sourceName": "contracts/Zapper.sol",
  "abi": [
    {
      "inputs": [
        {
          "internalType": "address",
          "name": "_nftKeeperToken",
          "type": "address"
        }
      ],
      "stateMutability": "nonpayable",
      "type": "constructor"
    },
    {
      "inputs": [],
      "name": "AccessControlBadConfirmation",
      "type": "error"
    },
    {
      "inputs": [
        {
          "internalType": "address",
          "name": "account",
          "type": "address"
        },
        {
          "internalType": "bytes32",
          "name": "neededRole",
          "type": "bytes32"
        }
      ],
      "name": "AccessControlUnauthorizedAccount",
      "type": "error"
    },
    {
      "inputs": [
        {
          "internalType": "address",
          "name": "_nftAddress",
          "type": "address"
        }
      ],
      "name": "NoNFT",
      "type": "error"
    },
    {
      "inputs": [],
      "name": "ReentrancyGuardReentrantCall",
      "type": "error"
    },
    {
      "inputs": [],
      "name": "ZeroAddress",
      "type": "error"
    },
    {
      "inputs": [],
      "name": "ZeroAmount",
      "type": "error"
    },
    {
      "inputs": [
        {
          "internalType": "address",
          "name": "token",
          "type": "address"
        }
      ],
      "name": "ZeroTokenBalance",
      "type": "error"
    },
    {
      "anonymous": false,
      "inputs": [
        {
          "indexed": true,
          "internalType": "bytes32",
          "name": "role",
          "type": "bytes32"
        },
        {
          "indexed": true,
          "internalType": "bytes32",
          "name": "previousAdminRole",
          "type": "bytes32"
        },
        {
          "indexed": true,
          "internalType": "bytes32",
          "name": "newAdminRole",
          "type": "bytes32"
        }
      ],
      "name": "RoleAdminChanged",
      "type": "event"
    },
    {
      "anonymous": false,
      "inputs": [
        {
          "indexed": true,
          "internalType": "bytes32",
          "name": "role",
          "type": "bytes32"
        },
        {
          "indexed": true,
          "internalType": "address",
          "name": "account",
          "type": "address"
        },
        {
          "indexed": true,
          "internalType": "address",
          "name": "sender",
          "type": "address"
        }
      ],
      "name": "RoleGranted",
      "type": "event"
    },
    {
      "anonymous": false,
      "inputs": [
        {
          "indexed": true,
          "internalType": "bytes32",
          "name": "role",
          "type": "bytes32"
        },
        {
          "indexed": true,
          "internalType": "address",
          "name": "account",
          "type": "address"
        },
        {
          "indexed": true,
          "internalType": "address",
          "name": "sender",
          "type": "address"
        }
      ],
      "name": "RoleRevoked",
      "type": "event"
    },
    {
      "anonymous": false,
      "inputs": [
        {
          "indexed": false,
          "internalType": "address",
          "name": "token",
          "type": "address"
        },
        {
          "indexed": false,
          "internalType": "uint256",
          "name": "value",
          "type": "uint256"
        }
      ],
      "name": "VirtualMonkeysMinted",
      "type": "event"
    },
    {
      "inputs": [],
      "name": "DEFAULT_ADMIN_ROLE",
      "outputs": [
        {
          "internalType": "bytes32",
          "name": "",
          "type": "bytes32"
        }
      ],
      "stateMutability": "view",
      "type": "function"
    },
    {
      "inputs": [
        {
          "internalType": "address",
          "name": "_ftToken",
          "type": "address"
        },
        {
          "internalType": "address",
          "name": "_nftToken",
          "type": "address"
        },
        {
          "internalType": "address",
          "name": "_pair",
          "type": "address"
        },
        {
          "internalType": "uint256",
          "name": "_amountFt",
          "type": "uint256"
        },
        {
          "internalType": "uint256[]",
          "name": "_amountsNft",
          "type": "uint256[]"
        },
        {
          "internalType": "address",
          "name": "_routerAddr",
          "type": "address"
        },
        {
          "internalType": "address",
          "name": "_receiver",
          "type": "address"
        },
        {
          "internalType": "uint256",
          "name": "_deadline",
          "type": "uint256"
        }
      ],
      "name": "addLiquidityWithNFT",
      "outputs": [
        {
          "internalType": "uint256",
          "name": "liquidity",
          "type": "uint256"
        }
      ],
      "stateMutability": "nonpayable",
      "type": "function"
    },
    {
      "inputs": [
        {
          "internalType": "address",
          "name": "_token",
          "type": "address"
        }
      ],
      "name": "getFeeBalance",
      "outputs": [
        {
          "internalType": "uint256",
          "name": "",
          "type": "uint256"
        }
      ],
      "stateMutability": "view",
      "type": "function"
    },
    {
      "inputs": [
        {
          "internalType": "bytes32",
          "name": "role",
          "type": "bytes32"
        }
      ],
      "name": "getRoleAdmin",
      "outputs": [
        {
          "internalType": "bytes32",
          "name": "",
          "type": "bytes32"
        }
      ],
      "stateMutability": "view",
      "type": "function"
    },
    {
      "inputs": [
        {
          "internalType": "bytes32",
          "name": "role",
          "type": "bytes32"
        },
        {
          "internalType": "address",
          "name": "account",
          "type": "address"
        }
      ],
      "name": "grantRole",
      "outputs": [],
      "stateMutability": "nonpayable",
      "type": "function"
    },
    {
      "inputs": [
        {
          "internalType": "bytes32",
          "name": "role",
          "type": "bytes32"
        },
        {
          "internalType": "address",
          "name": "account",
          "type": "address"
        }
      ],
      "name": "hasRole",
      "outputs": [
        {
          "internalType": "bool",
          "name": "",
          "type": "bool"
        }
      ],
      "stateMutability": "view",
      "type": "function"
    },
    {
      "inputs": [
        {
          "internalType": "address",
          "name": "_nft",
          "type": "address"
        },
        {
          "internalType": "address",
          "name": "_paymentToken",
          "type": "address"
        }
      ],
      "name": "lotteryOption",
      "outputs": [],
      "stateMutability": "nonpayable",
      "type": "function"
    },
    {
      "inputs": [
        {
          "internalType": "address",
          "name": "_tokenA",
          "type": "address"
        },
        {
          "internalType": "address",
          "name": "_tokenB",
          "type": "address"
        },
        {
          "internalType": "address",
          "name": "_factory",
          "type": "address"
        },
        {
          "internalType": "address",
          "name": "_router",
          "type": "address"
        },
        {
          "internalType": "address",
          "name": "_receiver",
          "type": "address"
        }
      ],
      "name": "removeLiquidity",
      "outputs": [
        {
          "internalType": "uint256",
          "name": "amountA",
          "type": "uint256"
        },
        {
          "internalType": "uint256",
          "name": "amountB",
          "type": "uint256"
        }
      ],
      "stateMutability": "nonpayable",
      "type": "function"
    },
    {
      "inputs": [
        {
          "internalType": "bytes32",
          "name": "role",
          "type": "bytes32"
        },
        {
          "internalType": "address",
          "name": "callerConfirmation",
          "type": "address"
        }
      ],
      "name": "renounceRole",
      "outputs": [],
      "stateMutability": "nonpayable",
      "type": "function"
    },
    {
      "inputs": [
        {
          "internalType": "bytes32",
          "name": "role",
          "type": "bytes32"
        },
        {
          "internalType": "address",
          "name": "account",
          "type": "address"
        }
      ],
      "name": "revokeRole",
      "outputs": [],
      "stateMutability": "nonpayable",
      "type": "function"
    },
    {
      "inputs": [
        {
          "internalType": "bytes4",
          "name": "interfaceId",
          "type": "bytes4"
        }
      ],
      "name": "supportsInterface",
      "outputs": [
        {
          "internalType": "bool",
          "name": "",
          "type": "bool"
        }
      ],
      "stateMutability": "view",
      "type": "function"
    },
    {
      "inputs": [
        {
          "internalType": "address",
          "name": "_swapToken",
          "type": "address"
        },
        {
          "internalType": "address",
          "name": "_targetToken",
          "type": "address"
        },
        {
          "internalType": "uint256",
          "name": "_amount",
          "type": "uint256"
        },
        {
          "internalType": "address",
          "name": "_recipient",
          "type": "address"
        },
        {
          "internalType": "address",
          "name": "_router",
          "type": "address"
        }
      ],
      "name": "swap",
      "outputs": [
        {
          "internalType": "uint256",
          "name": "",
          "type": "uint256"
        }
      ],
      "stateMutability": "nonpayable",
      "type": "function"
    },
    {
      "inputs": [
        {
          "internalType": "address",
          "name": "_token",
          "type": "address"
        },
        {
          "internalType": "uint256",
          "name": "value",
          "type": "uint256"
        }
      ],
      "name": "withdrawFee",
      "outputs": [],
      "stateMutability": "nonpayable",
      "type": "function"
    }
  ],
  "bytecode": "0x60806040523480156200001157600080fd5b50604051620021bb380380620021bb833981016040819052620000349162000153565b6001808055600380546001600160a01b0384166001600160a01b031991821681179092556002805490911690911790556200009c9062000095907fb9a3b4b0a0e39c82e10bb1ee9239694e7e38e754dd05dc964856c3893da8992b62000185565b33620000a4565b5050620001a7565b6000828152602081815260408083206001600160a01b038516845290915281205460ff1662000149576000838152602081815260408083206001600160a01b03861684529091529020805460ff19166001179055620001003390565b6001600160a01b0316826001600160a01b0316847f2f8788117e7eff1d82e926ec794901d17c78024a50270940304540a733656f0d60405160405180910390a45060016200014d565b5060005b92915050565b6000602082840312156200016657600080fd5b81516001600160a01b03811681146200017e57600080fd5b9392505050565b818103818111156200014d57634e487b7160e01b600052601160045260246000fd5b61200480620001b76000396000f3fe608060405234801561001057600080fd5b50600436106100de5760003560e01c806391d148541161008c578063d547741f11610066578063d547741f146101f1578063e0cb13ea14610204578063fd8a0d6d14610217578063fd9be5221461022a57600080fd5b806391d148541461019f578063a217fddf146101d6578063c78f6803146101de57600080fd5b80632f2ff15d116100bd5780632f2ff15d1461016457806336568abe1461017957806344c133e21461018c57600080fd5b80621acf2e146100e357806301ffc9a714610110578063248a9ca314610133575b600080fd5b6100f66100f136600461193b565b61023d565b604080519283526020830191909152015b60405180910390f35b61012361011e3660046119ac565b61054a565b6040519015158152602001610107565b6101566101413660046119dd565b60009081526020819052604090206001015490565b604051908152602001610107565b6101776101723660046119f6565b6105b3565b005b6101776101873660046119f6565b6105de565b61015661019a366004611a26565b61062f565b6101236101ad3660046119f6565b6000918252602082815260408084206001600160a01b0393909316845291905290205460ff1690565b610156600081565b6101566101ec366004611a70565b610827565b6101776101ff3660046119f6565b610892565b610156610212366004611af8565b6108b7565b610177610225366004611bfd565b610be4565b610177610238366004611c2b565b610ddf565b6000803361025e5760405163d92e233d60e01b815260040160405180910390fd5b6001600160a01b0387166102855760405163d92e233d60e01b815260040160405180910390fd5b6001600160a01b0386166102ac5760405163d92e233d60e01b815260040160405180910390fd5b6040517fe6a439050000000000000000000000000000000000000000000000000000000081526001600160a01b03888116600483015287811660248301526000919087169063e6a4390590604401602060405180830381865afa158015610317573d6000803e3d6000fd5b505050506040513d601f19601f8201168201806040525081019061033b9190611c57565b6040516370a0823160e01b81526001600160a01b0386811660048301529192506000918316906370a0823190602401602060405180830381865afa158015610387573d6000803e3d6000fd5b505050506040513d601f19601f820116820180604052508101906103ab9190611c74565b90506103b8828783610e67565b6103c482333084610fb0565b6040516370a0823160e01b81526001600160a01b0386811660048301528088169163baa2abde918c918c918691908416906370a0823190602401602060405180830381865afa15801561041b573d6000803e3d6000fd5b505050506040513d601f19601f8201168201806040525081019061043f9190611c74565b6040516370a0823160e01b81526001600160a01b038c811660048301528f16906370a0823190602401602060405180830381865afa158015610485573d6000803e3d6000fd5b505050506040513d601f19601f820116820180604052508101906104a99190611c74565b6040516001600160e01b031960e088901b1681526001600160a01b039586166004820152938516602485015260448401929092526064830152608482015290881660a48201524260c482015260e40160408051808303816000875af1158015610516573d6000803e3d6000fd5b505050506040513d601f19601f8201168201806040525081019061053a9190611c8d565b909a909950975050505050505050565b60006001600160e01b031982167f7965db0b0000000000000000000000000000000000000000000000000000000014806105ad57507f01ffc9a7000000000000000000000000000000000000000000000000000000006001600160e01b03198316145b92915050565b6000828152602081905260409020600101546105ce8161110e565b6105d8838361111b565b50505050565b6001600160a01b0381163314610620576040517f6697b23200000000000000000000000000000000000000000000000000000000815260040160405180910390fd5b61062a82826111c5565b505050565b60003361064f5760405163d92e233d60e01b815260040160405180910390fd5b6001600160a01b0386166106765760405163d92e233d60e01b815260040160405180910390fd5b6001600160a01b03851661069d5760405163d92e233d60e01b815260040160405180910390fd5b6040805160028082526060820183528492600092919060208301908036833701905050905060006106cd87611248565b905060006106db8289611cc7565b90506106e98a333085610fb0565b6106f48a8783610e67565b6107008a333084610fb0565b898360008151811061071457610714611cda565b60200260200101906001600160a01b031690816001600160a01b031681525050888360018151811061074857610748611cda565b6001600160a01b0392831660209182029290920101526040517f38ed17390000000000000000000000000000000000000000000000000000000081526060918616906338ed1739906107a790859060009089908e904290600401611cf0565b6000604051808303816000875af11580156107c6573d6000803e3d6000fd5b505050506040513d6000823e601f3d908101601f191682016040526107ee9190810190611d63565b905080600182516107ff9190611cc7565b8151811061080f5761080f611cda565b60200260200101519550505050505095945050505050565b6040516370a0823160e01b81523060048201526000906001600160a01b038316906370a0823190602401602060405180830381865afa15801561086e573d6000803e3d6000fd5b505050506040513d601f19601f820116820180604052508101906105ad9190611c74565b6000828152602081905260409020600101546108ad8161110e565b6105d883836111c5565b600080876001600160a01b0316630dfe16816040518163ffffffff1660e01b8152600401602060405180830381865afa1580156108f8573d6000803e3d6000fd5b505050506040513d601f19601f8201168201806040525081019061091c9190611c57565b90506000886001600160a01b031663d21220a76040518163ffffffff1660e01b8152600401602060405180830381865afa15801561095e573d6000803e3d6000fd5b505050506040513d601f19601f820116820180604052508101906109829190611c57565b90506000826001600160a01b03168c6001600160a01b0316146109a557826109a7565b815b90506109b38b89611282565b506040516370a0823160e01b81526001600160a01b038781166004830152600091908e16906370a0823190602401602060405180830381865afa1580156109fe573d6000803e3d6000fd5b505050506040513d601f19601f82011682018060405250810190610a229190611c74565b6040516370a0823160e01b81523060048201529091506000906001600160a01b038416906370a0823190602401602060405180830381865afa158015610a6c573d6000803e3d6000fd5b505050506040513d601f19601f82011682018060405250810190610a909190611c74565b905060008211610ac357604051637a952e7d60e01b81526001600160a01b03861660048201526024015b60405180910390fd5b60008111610aef57604051637a952e7d60e01b81526001600160a01b0385166004820152602401610aba565b610afb8e33308e610fb0565b610b068e8a8d610e67565b610b11838a83610e67565b6040517fe8e337000000000000000000000000000000000000000000000000000000000081526001600160a01b038f811660048301528481166024830152604482018d90526064820183905260006084830181905260a483015289811660c483015260e482018990528a169063e8e3370090610104016060604051808303816000875af1158015610ba6573d6000803e3d6000fd5b505050506040513d601f19601f82011682018060405250810190610bca9190611df4565b909150905080965050505050505098975050505050505050565b610bec611680565b6040516370a0823160e01b8152336004820152670de0b6b3a7640000906001600160a01b038316906370a0823190602401602060405180830381865afa158015610c3a573d6000803e3d6000fd5b505050506040513d601f19601f82011682018060405250810190610c5e9190611c74565b1015610c8857604051637a952e7d60e01b81526001600160a01b0382166004820152602401610aba565b6000610c926116c3565b905060148111610ca25750610dd2565b6040516370a0823160e01b81523060048201526000906001600160a01b038516906370a0823190602401602060405180830381865afa158015610ce9573d6000803e3d6000fd5b505050506040513d601f19601f82011682018060405250810190610d0d9190611c74565b905080600003610d54576040517f36e365940000000000000000000000000000000000000000000000000000000081526001600160a01b0385166004820152602401610aba565b601482118015610d65575060558211155b15610d7657610d7684600185611729565b605582118015610d875750605c8211155b15610d9857610d9884600285611729565b605c82118015610da9575060628211155b15610dba57610dba84600385611729565b6062821115610dcf57610dcf84600485611729565b50505b610ddb60018055565b5050565b610e0a60017fb9a3b4b0a0e39c82e10bb1ee9239694e7e38e754dd05dc964856c3893da8992b611cc7565b610e138161110e565b6001600160a01b038316610e3a5760405163d92e233d60e01b815260040160405180910390fd5b81600003610e5b57604051631f2a200560e01b815260040160405180910390fd5b61062a83303385610fb0565b604080516001600160a01b038481166024830152604480830185905283518084039091018152606490920183526020820180517bffffffffffffffffffffffffffffffffffffffffffffffffffffffff167f095ea7b3000000000000000000000000000000000000000000000000000000001790529151600092839290871691610ef19190611e22565b6000604051808303816000865af19150503d8060008114610f2e576040519150601f19603f3d011682016040523d82523d6000602084013e610f33565b606091505b5091509150818015610f5d575080511580610f5d575080806020019051810190610f5d9190611e51565b610fa95760405162461bcd60e51b815260206004820152601e60248201527f5472616e7366657248656c7065723a20415050524f56455f4641494c454400006044820152606401610aba565b5050505050565b604080516001600160a01b0385811660248301528481166044830152606480830185905283518084039091018152608490920183526020820180517bffffffffffffffffffffffffffffffffffffffffffffffffffffffff166323b872dd60e01b17905291516000928392908816916110299190611e22565b6000604051808303816000865af19150503d8060008114611066576040519150601f19603f3d011682016040523d82523d6000602084013e61106b565b606091505b50915091508180156110955750805115806110955750808060200190518101906110959190611e51565b6111065760405162461bcd60e51b8152602060048201526024808201527f5472616e7366657248656c7065723a205452414e534645525f46524f4d5f464160448201527f494c4544000000000000000000000000000000000000000000000000000000006064820152608401610aba565b505050505050565b61111881336118aa565b50565b6000828152602081815260408083206001600160a01b038516845290915281205460ff166111bd576000838152602081815260408083206001600160a01b03861684529091529020805460ff191660011790556111753390565b6001600160a01b0316826001600160a01b0316847f2f8788117e7eff1d82e926ec794901d17c78024a50270940304540a733656f0d60405160405180910390a45060016105ad565b5060006105ad565b6000828152602081815260408083206001600160a01b038516845290915281205460ff16156111bd576000838152602081815260408083206001600160a01b0386168085529252808320805460ff1916905551339286917ff6391f5c32d9c69d2a47ea670b442974b53935d1edc7fd64eb21e047a839171b9190a45060016105ad565b60008160000361126b57604051631f2a200560e01b815260040160405180910390fd5b6064611278836019611e73565b6105ad9190611ea0565b6040516370a0823160e01b815233600482015260009081906001600160a01b038516906370a0823190602401602060405180830381865afa1580156112cb573d6000803e3d6000fd5b505050506040513d601f19601f820116820180604052508101906112ef9190611c74565b9050806000036113415760405162461bcd60e51b815260206004820152601060248201527f5a65726f203732312062616c616e6365000000000000000000000000000000006044820152606401610aba565b82516000036113925760405162461bcd60e51b815260206004820152601c60248201527f53686f756c64206265206174206c65617374203120746f6b656e4944000000006044820152606401610aba565b60005b83518110156114da57846001600160a01b03166323b872dd33308785815181106113c1576113c1611cda565b60209081029190910101516040516001600160e01b031960e086901b1681526001600160a01b0393841660048201529290911660248301526044820152606401600060405180830381600087803b15801561141b57600080fd5b505af115801561142f573d6000803e3d6000fd5b5050505060016005600086848151811061144b5761144b611cda565b6020026020010151815260200190815260200160002060006101000a81548160ff02191690831515021790555060066000306001600160a01b03166001600160a01b031681526020019081526020016000208482815181106114af576114af611cda565b6020908102919091018101518254600181810185556000948552929093209092019190915501611395565b5060008351670de0b6b3a76400006114f29190611e73565b6002546040517f40c10f19000000000000000000000000000000000000000000000000000000008152306004820152602481018390529192506001600160a01b0316906340c10f1990604401600060405180830381600087803b15801561155857600080fd5b505af115801561156c573d6000803e3d6000fd5b505050506001600160a01b03851660009081526004602052604081208054839290611598908490611eb4565b90915550506040516370a0823160e01b815230600482015290925082906000906001600160a01b038716906370a0823190602401602060405180830381865afa1580156115e9573d6000803e3d6000fd5b505050506040513d601f19601f8201168201806040525081019061160d9190611c74565b1161163657604051637a952e7d60e01b81526001600160a01b0386166004820152602401610aba565b604080516001600160a01b0387168152602081018390527f81cebed9fc5ab87f88145bbd652b3e033afc604a120a4935947e0d88112d89c7910160405180910390a1505092915050565b6002600154036116bc576040517f3ee5aeb500000000000000000000000000000000000000000000000000000000815260040160405180910390fd5b6002600155565b600080326116d2600143611cc7565b60405160609290921b6bffffffffffffffffffffffff1916602083015240603482015242605482015260740160408051601f1981840301815291905280516020909101209050611723606482611ec7565b91505090565b61173f81333061173a601287611fbf565b610fb0565b60005b828110156105d85730600090815260066020526040812080548390811061176b5761176b611cda565b6000918252602080832090910154808352600590915260409091205490915060ff16156118a1576040517f6352211e0000000000000000000000000000000000000000000000000000000081526004810182905230906001600160a01b03871690636352211e90602401602060405180830381865afa1580156117f2573d6000803e3d6000fd5b505050506040513d601f19601f820116820180604052508101906118169190611c57565b6001600160a01b0316036118a1576040516323b872dd60e01b8152306004820152336024820152604481018290526001600160a01b038616906323b872dd90606401600060405180830381600087803b15801561187257600080fd5b505af1158015611886573d6000803e3d6000fd5b5050506000828152600560205260409020805460ff19169055505b50600101611742565b6000828152602081815260408083206001600160a01b038516845290915290205460ff16610ddb576040517fe2517d3f0000000000000000000000000000000000000000000000000000000081526001600160a01b038216600482015260248101839052604401610aba565b6001600160a01b038116811461111857600080fd5b803561193681611916565b919050565b600080600080600060a0868803121561195357600080fd5b853561195e81611916565b9450602086013561196e81611916565b9350604086013561197e81611916565b9250606086013561198e81611916565b9150608086013561199e81611916565b809150509295509295909350565b6000602082840312156119be57600080fd5b81356001600160e01b0319811681146119d657600080fd5b9392505050565b6000602082840312156119ef57600080fd5b5035919050565b60008060408385031215611a0957600080fd5b823591506020830135611a1b81611916565b809150509250929050565b600080600080600060a08688031215611a3e57600080fd5b8535611a4981611916565b94506020860135611a5981611916565b935060408601359250606086013561198e81611916565b600060208284031215611a8257600080fd5b81356119d681611916565b634e487b7160e01b600052604160045260246000fd5b604051601f8201601f1916810167ffffffffffffffff81118282101715611acc57611acc611a8d565b604052919050565b600067ffffffffffffffff821115611aee57611aee611a8d565b5060051b60200190565b600080600080600080600080610100898b031215611b1557600080fd5b8835611b2081611916565b9750602089810135611b3181611916565b975060408a0135611b4181611916565b965060608a0135955060808a013567ffffffffffffffff811115611b6457600080fd5b8a01601f81018c13611b7557600080fd5b8035611b88611b8382611ad4565b611aa3565b81815260059190911b8201830190838101908e831115611ba757600080fd5b928401925b82841015611bc557833582529284019290840190611bac565b8098505050505050611bd960a08a0161192b565b9250611be760c08a0161192b565b915060e089013590509295985092959890939650565b60008060408385031215611c1057600080fd5b8235611c1b81611916565b91506020830135611a1b81611916565b60008060408385031215611c3e57600080fd5b8235611c4981611916565b946020939093013593505050565b600060208284031215611c6957600080fd5b81516119d681611916565b600060208284031215611c8657600080fd5b5051919050565b60008060408385031215611ca057600080fd5b505080516020909101519092909150565b634e487b7160e01b600052601160045260246000fd5b818103818111156105ad576105ad611cb1565b634e487b7160e01b600052603260045260246000fd5b600060a08201878352602087602085015260a0604085015281875180845260c08601915060208901935060005b81811015611d425784516001600160a01b031683529383019391830191600101611d1d565b50506001600160a01b03969096166060850152505050608001529392505050565b60006020808385031215611d7657600080fd5b825167ffffffffffffffff811115611d8d57600080fd5b8301601f81018513611d9e57600080fd5b8051611dac611b8382611ad4565b81815260059190911b82018301908381019087831115611dcb57600080fd5b928401925b82841015611de957835182529284019290840190611dd0565b979650505050505050565b600080600060608486031215611e0957600080fd5b8351925060208401519150604084015190509250925092565b6000825160005b81811015611e435760208186018101518583015201611e29565b506000920191825250919050565b600060208284031215611e6357600080fd5b815180151581146119d657600080fd5b80820281158282048414176105ad576105ad611cb1565b634e487b7160e01b600052601260045260246000fd5b600082611eaf57611eaf611e8a565b500490565b808201808211156105ad576105ad611cb1565b600082611ed657611ed6611e8a565b500690565b600181815b80851115611f16578160001904821115611efc57611efc611cb1565b80851615611f0957918102915b93841c9390800290611ee0565b509250929050565b600082611f2d575060016105ad565b81611f3a575060006105ad565b8160018114611f505760028114611f5a57611f76565b60019150506105ad565b60ff841115611f6b57611f6b611cb1565b50506001821b6105ad565b5060208310610133831016604e8410600b8410161715611f99575081810a6105ad565b611fa38383611edb565b8060001904821115611fb757611fb7611cb1565b029392505050565b60006119d660ff841683611f1e56fea2646970667358221220d25fb633cca7531e403c8e3a793cf51976e92b24dbf560d79b599178c708372c64736f6c63430008170033",
  "linkReferences": {},
  "deployedLinkReferences": {}
}